{
  "address": "0x084c7E7d2FE0F66b4c01154A8f8D15105fB6F7bD",
  "abi": [
    {
      "inputs": [
        {
          "internalType": "string",
          "name": "contractURI_",
          "type": "string"
        },
        {
          "internalType": "string",
          "name": "baseURI",
          "type": "string"
        },
        {
          "internalType": "address",
          "name": "wethContract_",
          "type": "address"
        },
        {
          "internalType": "address",
          "name": "owner_",
          "type": "address"
        }
      ],
      "stateMutability": "nonpayable",
      "type": "constructor"
    },
    {
      "inputs": [],
      "name": "AlreadySettled",
      "type": "error"
    },
    {
      "inputs": [],
      "name": "BattleInactive",
      "type": "error"
    },
    {
      "inputs": [],
      "name": "BattleNotEnded",
      "type": "error"
    },
    {
      "inputs": [],
      "name": "NoSelfOutbid",
      "type": "error"
    },
    {
      "inputs": [],
      "name": "NotEnoughContenders",
      "type": "error"
    },
    {
      "inputs": [],
      "name": "UnknownBattle",
      "type": "error"
    },
    {
      "inputs": [],
      "name": "WETHNotSet",
      "type": "error"
    },
    {
      "inputs": [],
      "name": "WrongBidValue",
      "type": "error"
    },
    {
      "inputs": [],
      "name": "WrongContender",
      "type": "error"
    },
    {
      "anonymous": false,
      "inputs": [
        {
          "indexed": false,
          "internalType": "uint256",
          "name": "battleId",
          "type": "uint256"
        }
      ],
      "name": "BattleCanceled",
      "type": "event"
    },
    {
      "anonymous": false,
      "inputs": [
        {
          "indexed": false,
          "internalType": "uint256",
          "name": "battleId",
          "type": "uint256"
        },
        {
          "indexed": false,
          "internalType": "uint256",
          "name": "index",
          "type": "uint256"
        },
        {
          "indexed": false,
          "internalType": "uint256",
          "name": "tokenId",
          "type": "uint256"
        },
        {
          "indexed": false,
          "internalType": "address",
          "name": "randomBidder",
          "type": "address"
        }
      ],
      "name": "BattleContenderResult",
      "type": "event"
    },
    {
      "anonymous": false,
      "inputs": [
        {
          "indexed": false,
          "internalType": "uint256",
          "name": "battleId",
          "type": "uint256"
        },
        {
          "indexed": false,
          "internalType": "address[]",
          "name": "contenders",
          "type": "address[]"
        }
      ],
      "name": "BattleCreated",
      "type": "event"
    },
    {
      "anonymous": false,
      "inputs": [
        {
          "indexed": false,
          "internalType": "uint256",
          "name": "battleId",
          "type": "uint256"
        },
        {
          "indexed": false,
          "internalType": "uint256",
          "name": "newEnd",
          "type": "uint256"
        }
      ],
      "name": "BattleEndChanged",
      "type": "event"
    },
    {
      "anonymous": false,
      "inputs": [
        {
          "indexed": false,
          "internalType": "uint256",
          "name": "battleId",
          "type": "uint256"
        },
        {
          "indexed": false,
          "internalType": "uint256",
          "name": "bidsSum",
          "type": "uint256"
        }
      ],
      "name": "BattleSettled",
      "type": "event"
    },
    {
      "anonymous": false,
      "inputs": [
        {
          "indexed": false,
          "internalType": "uint256",
          "name": "battleId",
          "type": "uint256"
        },
        {
          "indexed": false,
          "internalType": "uint256",
          "name": "newEnd",
          "type": "uint256"
        }
      ],
      "name": "BattleStartChanged",
      "type": "event"
    },
    {
      "anonymous": false,
      "inputs": [
        {
          "indexed": false,
          "internalType": "uint256",
          "name": "battleId",
          "type": "uint256"
        },
        {
          "indexed": false,
          "internalType": "uint256",
          "name": "contender",
          "type": "uint256"
        },
        {
          "indexed": false,
          "internalType": "address",
          "name": "bidder",
          "type": "address"
        },
        {
          "indexed": false,
          "internalType": "uint256",
          "name": "bid",
          "type": "uint256"
        }
      ],
      "name": "BidCreated",
      "type": "event"
    },
    {
      "anonymous": false,
      "inputs": [
        {
          "indexed": false,
          "internalType": "string",
          "name": "contractURI",
          "type": "string"
        }
      ],
      "name": "NewContractURI",
      "type": "event"
    },
    {
      "anonymous": false,
      "inputs": [
        {
          "indexed": true,
          "internalType": "address",
          "name": "previousOwner",
          "type": "address"
        },
        {
          "indexed": true,
          "internalType": "address",
          "name": "newOwner",
          "type": "address"
        }
      ],
      "name": "OwnershipTransferred",
      "type": "event"
    },
    {
      "anonymous": false,
      "inputs": [
        {
          "indexed": false,
          "internalType": "uint256",
          "name": "tokenId",
          "type": "uint256"
        },
        {
          "indexed": false,
          "internalType": "uint256",
          "name": "groupId",
          "type": "uint256"
        }
      ],
      "name": "TokenToGroup",
      "type": "event"
    },
    {
      "inputs": [
        {
          "internalType": "uint256",
          "name": "",
          "type": "uint256"
        }
      ],
      "name": "battles",
      "outputs": [
        {
          "internalType": "uint256",
          "name": "startsAt",
          "type": "uint256"
        },
        {
          "internalType": "uint256",
          "name": "endsAt",
          "type": "uint256"
        },
        {
          "internalType": "uint256",
          "name": "contenders",
          "type": "uint256"
        },
        {
          "internalType": "bool",
          "name": "settled",
          "type": "bool"
        }
      ],
      "stateMutability": "view",
      "type": "function"
    },
    {
      "inputs": [
        {
          "internalType": "uint256",
          "name": "battleId",
          "type": "uint256"
        },
        {
          "internalType": "uint256",
          "name": "contender",
          "type": "uint256"
        }
      ],
      "name": "bid",
      "outputs": [],
      "stateMutability": "payable",
      "type": "function"
    },
    {
      "inputs": [
        {
          "internalType": "uint256",
          "name": "battleId",
          "type": "uint256"
        }
      ],
      "name": "cancelBattle",
      "outputs": [],
      "stateMutability": "nonpayable",
      "type": "function"
    },
    {
      "inputs": [],
      "name": "contractURI",
      "outputs": [
        {
          "internalType": "string",
          "name": "",
          "type": "string"
        }
      ],
      "stateMutability": "view",
      "type": "function"
    },
    {
      "inputs": [
        {
          "internalType": "address[]",
          "name": "contenders",
          "type": "address[]"
        },
        {
          "internalType": "uint256",
          "name": "startsAt",
          "type": "uint256"
        },
        {
          "internalType": "uint256",
          "name": "duration",
          "type": "uint256"
        }
      ],
      "name": "createBattle",
      "outputs": [],
      "stateMutability": "nonpayable",
      "type": "function"
    },
    {
      "inputs": [],
      "name": "currentGroupId",
      "outputs": [
        {
          "internalType": "uint256",
          "name": "",
          "type": "uint256"
        }
      ],
      "stateMutability": "view",
      "type": "function"
    },
    {
      "inputs": [
        {
          "internalType": "uint256",
          "name": "battleId",
          "type": "uint256"
        }
      ],
      "name": "getBattleBids",
      "outputs": [
        {
          "internalType": "address[]",
          "name": "bidders",
          "type": "address[]"
        },
        {
          "internalType": "uint256[]",
          "name": "bids",
          "type": "uint256[]"
        }
      ],
      "stateMutability": "view",
      "type": "function"
    },
    {
      "inputs": [
        {
          "internalType": "uint256",
          "name": "",
          "type": "uint256"
        }
      ],
      "name": "groupBaseURI",
      "outputs": [
        {
          "internalType": "string",
          "name": "",
          "type": "string"
        }
      ],
      "stateMutability": "view",
      "type": "function"
    },
    {
      "inputs": [
        {
          "internalType": "string",
          "name": "previousGroupBaseURI",
          "type": "string"
        },
        {
          "internalType": "string",
          "name": "newGroupBaseURI",
          "type": "string"
        }
      ],
      "name": "incrementGroup",
      "outputs": [],
      "stateMutability": "nonpayable",
      "type": "function"
    },
    {
      "inputs": [],
      "name": "lastBattleId",
      "outputs": [
        {
          "internalType": "uint256",
          "name": "",
          "type": "uint256"
        }
      ],
      "stateMutability": "view",
      "type": "function"
    },
    {
      "inputs": [],
      "name": "minimalBid",
      "outputs": [
        {
          "internalType": "uint256",
          "name": "",
          "type": "uint256"
        }
      ],
      "stateMutability": "view",
      "type": "function"
    },
    {
      "inputs": [],
      "name": "minimalBidIncrease",
      "outputs": [
        {
          "internalType": "uint256",
          "name": "",
          "type": "uint256"
        }
      ],
      "stateMutability": "view",
      "type": "function"
    },
    {
      "inputs": [],
      "name": "nftContract",
      "outputs": [
        {
          "internalType": "address",
          "name": "",
          "type": "address"
        }
      ],
      "stateMutability": "view",
      "type": "function"
    },
    {
      "inputs": [],
      "name": "onAttach",
      "outputs": [
        {
          "internalType": "bool",
          "name": "",
          "type": "bool"
        }
      ],
      "stateMutability": "nonpayable",
      "type": "function"
    },
    {
      "inputs": [],
      "name": "onDisable",
      "outputs": [],
      "stateMutability": "nonpayable",
      "type": "function"
    },
    {
      "inputs": [],
      "name": "onEnable",
      "outputs": [
        {
          "internalType": "bool",
          "name": "",
          "type": "bool"
        }
      ],
      "stateMutability": "nonpayable",
      "type": "function"
    },
    {
      "inputs": [],
      "name": "owner",
      "outputs": [
        {
          "internalType": "address",
          "name": "",
          "type": "address"
        }
      ],
      "stateMutability": "view",
      "type": "function"
    },
    {
      "inputs": [],
      "name": "renounceOwnership",
      "outputs": [],
      "stateMutability": "nonpayable",
      "type": "function"
    },
    {
      "inputs": [
        {
          "internalType": "address",
          "name": "",
          "type": "address"
        },
        {
          "internalType": "uint256",
          "name": "tokenId",
          "type": "uint256"
        }
      ],
      "name": "royaltyInfo",
      "outputs": [
        {
          "internalType": "address",
          "name": "recipient",
          "type": "address"
        },
        {
          "internalType": "uint256",
          "name": "basisPoint",
          "type": "uint256"
        }
      ],
      "stateMutability": "view",
      "type": "function"
    },
    {
      "inputs": [
        {
          "internalType": "uint256",
          "name": "battleId",
          "type": "uint256"
        },
        {
          "internalType": "uint256",
          "name": "startsAt",
          "type": "uint256"
        },
        {
          "internalType": "uint256",
          "name": "duration",
          "type": "uint256"
        }
      ],
      "name": "setBattleStarts",
      "outputs": [],
      "stateMutability": "nonpayable",
      "type": "function"
    },
    {
      "inputs": [
        {
          "internalType": "uint256",
          "name": "groupId",
          "type": "uint256"
        },
        {
          "internalType": "string",
          "name": "baseURI",
          "type": "string"
        }
      ],
      "name": "setGroupURI",
      "outputs": [],
      "stateMutability": "nonpayable",
      "type": "function"
    },
    {
      "inputs": [
        {
          "internalType": "uint256[]",
          "name": "groupIds",
          "type": "uint256[]"
        },
        {
          "internalType": "string",
          "name": "baseURI",
          "type": "string"
        }
      ],
      "name": "setGroupsURI",
      "outputs": [],
      "stateMutability": "nonpayable",
      "type": "function"
    },
    {
      "inputs": [
        {
          "internalType": "uint256",
          "name": "newMinimalBid",
          "type": "uint256"
        },
        {
          "internalType": "uint256",
          "name": "newMinimalBidIncrease",
          "type": "uint256"
        }
      ],
      "name": "setMinimals",
      "outputs": [],
      "stateMutability": "nonpayable",
      "type": "function"
    },
    {
      "inputs": [
        {
          "internalType": "uint256",
          "name": "tokenId",
          "type": "uint256"
        },
        {
          "internalType": "uint256",
          "name": "groupId",
          "type": "uint256"
        }
      ],
      "name": "setTokenGroup",
      "outputs": [],
      "stateMutability": "nonpayable",
      "type": "function"
    },
    {
      "inputs": [
        {
          "internalType": "uint256[]",
          "name": "tokenIds",
          "type": "uint256[]"
        },
        {
          "internalType": "uint256",
          "name": "groupId",
          "type": "uint256"
        }
      ],
      "name": "setTokensGroup",
      "outputs": [],
      "stateMutability": "nonpayable",
      "type": "function"
    },
    {
      "inputs": [
        {
          "internalType": "address",
          "name": "newWithdrawTarget",
          "type": "address"
        }
      ],
      "name": "setWithdrawTarget",
      "outputs": [],
      "stateMutability": "nonpayable",
      "type": "function"
    },
    {
      "inputs": [
        {
          "internalType": "uint256",
          "name": "battleId",
          "type": "uint256"
        }
      ],
      "name": "settleBattle",
      "outputs": [],
      "stateMutability": "nonpayable",
      "type": "function"
    },
    {
      "inputs": [
        {
          "internalType": "bytes4",
          "name": "interfaceId",
          "type": "bytes4"
        }
      ],
      "name": "supportsInterface",
      "outputs": [
        {
          "internalType": "bool",
          "name": "",
          "type": "bool"
        }
      ],
      "stateMutability": "view",
      "type": "function"
    },
    {
      "inputs": [],
      "name": "timeBuffer",
      "outputs": [
        {
          "internalType": "uint256",
          "name": "",
          "type": "uint256"
        }
      ],
      "stateMutability": "view",
      "type": "function"
    },
    {
      "inputs": [
        {
          "internalType": "uint256",
          "name": "",
          "type": "uint256"
        }
      ],
      "name": "tokenCreator",
      "outputs": [
        {
          "internalType": "address",
          "name": "",
          "type": "address"
        }
      ],
      "stateMutability": "view",
      "type": "function"
    },
    {
      "inputs": [
        {
          "internalType": "uint256",
          "name": "",
          "type": "uint256"
        }
      ],
      "name": "tokenGroup",
      "outputs": [
        {
          "internalType": "uint256",
          "name": "",
          "type": "uint256"
        }
      ],
      "stateMutability": "view",
      "type": "function"
    },
    {
      "inputs": [
        {
          "internalType": "address",
          "name": "registry",
          "type": "address"
        },
        {
          "internalType": "uint256",
          "name": "tokenId",
          "type": "uint256"
        }
      ],
      "name": "tokenURI",
      "outputs": [
        {
          "internalType": "string",
          "name": "",
          "type": "string"
        }
      ],
      "stateMutability": "view",
      "type": "function"
    },
    {
      "inputs": [
        {
          "internalType": "address",
          "name": "newOwner",
          "type": "address"
        }
      ],
      "name": "transferOwnership",
      "outputs": [],
      "stateMutability": "nonpayable",
      "type": "function"
    },
    {
      "inputs": [],
      "name": "wethContract",
      "outputs": [
        {
          "internalType": "address",
          "name": "",
          "type": "address"
        }
      ],
      "stateMutability": "view",
      "type": "function"
    },
    {
      "inputs": [],
      "name": "withdrawTarget",
      "outputs": [
        {
          "internalType": "address",
          "name": "",
          "type": "address"
        }
      ],
      "stateMutability": "view",
      "type": "function"
    }
  ],
  "transactionHash": "0x378be032a002e5fc550662b4b2f50cff635951f57d8d105d9c74935ba96838bd",
  "args": [
    "",
    "",
    "0x0000000000000000000000000000000000000000",
    "0x0000000000000000000000000000000000000000"
  ],
  "numDeployments": 1,
  "solcInputHash": "f01dab484ff18b8147d872f7153ed160",
  "bytecode": "0x60a060405266038d7ea4c680006009556005600a5561012c600b553480156200002757600080fd5b5060405162002a1438038062002a148339810160408190526200004a916200049a565b83620000563362000124565b60018055620000658162000174565b50604080516020810190915260008152620000819084620001c6565b466004811415620000a95773c778417e063141139fce010982780140aa0cd5ab9250620000f8565b8060011415620000d05773c02aaa39b223fe8d0a0e5c4f27ead9083c756cc29250620000f8565b6001600160a01b038316620000f8576040516382b5831960e01b815260040160405180910390fd5b6001600160a01b038084166080528216156200011957620001198262000202565b5050505050620005c5565b600080546001600160a01b038381166001600160a01b0319831681178455604051919092169283917f8be0079c531659141344cd1fd0a4f28419497f9722a3daafe3b4186f6b6457e09190a35050565b805162000189906007906020840190620002fd565b507fdf1280b84eee5cd4ce59294c59ec7288bd49034d7f3d142f57ba9b477915636481604051620001bb919062000529565b60405180910390a150565b815115620001dd57600254620001dd9083620002d7565b620001fe600260008154620001f2906200055e565b918290555082620002d7565b5050565b6000546001600160a01b03163314620002625760405162461bcd60e51b815260206004820181905260248201527f4f776e61626c653a2063616c6c6572206973206e6f7420746865206f776e657260448201526064015b60405180910390fd5b6001600160a01b038116620002c95760405162461bcd60e51b815260206004820152602660248201527f4f776e61626c653a206e6577206f776e657220697320746865207a65726f206160448201526564647265737360d01b606482015260840162000259565b620002d48162000124565b50565b60008281526003602090815260409091208251620002f892840190620002fd565b505050565b8280546200030b9062000588565b90600052602060002090601f0160209004810192826200032f57600085556200037a565b82601f106200034a57805160ff19168380011785556200037a565b828001600101855582156200037a579182015b828111156200037a5782518255916020019190600101906200035d565b50620003889291506200038c565b5090565b5b808211156200038857600081556001016200038d565b634e487b7160e01b600052604160045260246000fd5b60005b83811015620003d6578181015183820152602001620003bc565b83811115620003e6576000848401525b50505050565b600082601f830112620003fe57600080fd5b81516001600160401b03808211156200041b576200041b620003a3565b604051601f8301601f19908116603f01168101908282118183101715620004465762000446620003a3565b816040528381528660208588010111156200046057600080fd5b62000473846020830160208901620003b9565b9695505050505050565b80516001600160a01b03811681146200049557600080fd5b919050565b60008060008060808587031215620004b157600080fd5b84516001600160401b0380821115620004c957600080fd5b620004d788838901620003ec565b95506020870151915080821115620004ee57600080fd5b50620004fd87828801620003ec565b9350506200050e604086016200047d565b91506200051e606086016200047d565b905092959194509250565b60208152600082518060208401526200054a816040850160208701620003b9565b601f01601f19169190910160400192915050565b60006000198214156200058157634e487b7160e01b600052601160045260246000fd5b5060010190565b600181811c908216806200059d57607f821691505b60208210811415620005bf57634e487b7160e01b600052602260045260246000fd5b50919050565b608051612425620005ef6000396000818161037e01528181611a120152611aa701526124256000f3fe6080604052600436106102045760003560e01c8063606d2e9611610118578063b079ac90116100a0578063e9dc63751161006f578063e9dc63751461066f578063ec91f2a41461068f578063ed1b3144146106a5578063f21955e0146106ba578063f2fde38b146106da57600080fd5b8063b079ac90146105f9578063c40ae18c1461060d578063d56d229d1461063a578063e8a3d4851461065a57600080fd5b80637562d58b116100e75780637562d58b14610558578063759622001461057857806387223f3a1461058e5780638da5cb5b146105bb578063952d2161146105d957600080fd5b8063606d2e96146104a657806365843c121461050d57806368cf7d0e14610523578063715018a61461054357600080fd5b806347cef8bc1161019b5780634c4c447e1161016a5780634c4c447e146104205780634c85eb1f146104405780634feae8971461044f578063518c83b01461047d578063598647f81461049357600080fd5b806347cef8bc146103a057806348eaa2f0146103c05780634971d573146103e05780634b3fdc2e1461040057600080fd5b806337867c94116101d757806337867c94146102da57806340c1a064146102fe57806343d4c20e1461034c5780634780eac11461036c57600080fd5b806301ffc9a71461020957806320d991061461023e578063259f4785146102605780632782d6c714610280575b600080fd5b34801561021557600080fd5b50610229610224366004611dd4565b6106fa565b60405190151581526020015b60405180910390f35b34801561024a57600080fd5b5061025e610259366004611e4a565b61074c565b005b34801561026c57600080fd5b5061025e61027b366004611e96565b6107c4565b34801561028c57600080fd5b506102bb61029b366004611ed4565b6000908152601060205260409020546001600160a01b0316916102ee9150565b604080516001600160a01b039093168352602083019190915201610235565b3480156102e657600080fd5b506102f060025481565b604051908152602001610235565b34801561030a57600080fd5b50610334610319366004611efe565b6010602052600090815260409020546001600160a01b031681565b6040516001600160a01b039091168152602001610235565b34801561035857600080fd5b5061025e610367366004611f59565b6107fc565b34801561037857600080fd5b506103347f000000000000000000000000000000000000000000000000000000000000000081565b3480156103ac57600080fd5b5061025e6103bb366004611e96565b61086b565b3480156103cc57600080fd5b5061025e6103db366004611efe565b6108a0565b3480156103ec57600080fd5b5061025e6103fb366004611fa5565b610c7e565b34801561040c57600080fd5b5061025e61041b366004612011565b610d24565b34801561042c57600080fd5b5061025e61043b366004611efe565b610ec2565b34801561044c57600080fd5b50005b34801561045b57600080fd5b5061046f61046a366004611efe565b610fcf565b604051610235929190612062565b34801561048957600080fd5b506102f0600c5481565b61025e6104a1366004611e96565b61115b565b3480156104b257600080fd5b506104eb6104c1366004611efe565b600e6020526000908152604090208054600182015460028301546003909301549192909160ff1684565b6040805194855260208501939093529183015215156060820152608001610235565b34801561051957600080fd5b506102f060095481565b34801561052f57600080fd5b50600d54610334906001600160a01b031681565b34801561054f57600080fd5b5061025e61141d565b34801561056457600080fd5b5061025e6105733660046120e6565b611451565b34801561058457600080fd5b506102f0600a5481565b34801561059a57600080fd5b506102f06105a9366004611efe565b60046020526000908152604090205481565b3480156105c757600080fd5b506000546001600160a01b0316610334565b3480156105e557600080fd5b5061025e6105f4366004612101565b61149d565b34801561060557600080fd5b506001610229565b34801561061957600080fd5b5061062d610628366004611efe565b6115a9565b6040516102359190612159565b34801561064657600080fd5b50600854610334906001600160a01b031681565b34801561066657600080fd5b5061062d611643565b34801561067b57600080fd5b5061062d61068a366004611ed4565b6116d5565b34801561069b57600080fd5b506102f0600b5481565b3480156106b157600080fd5b506102296117b3565b3480156106c657600080fd5b5061025e6106d536600461218c565b6117e4565b3480156106e657600080fd5b5061025e6106f53660046120e6565b611881565b60006001600160e01b0319821663e9dc637560e01b148061072b57506001600160e01b03198216632782d6c760e01b145b8061074657506301ffc9a760e01b6001600160e01b03198316145b92915050565b6000546001600160a01b0316331461077f5760405162461bcd60e51b8152600401610776906121c6565b60405180910390fd5b60005b828110156107be576107ac84848381811061079f5761079f6121fb565b905060200201358361191c565b806107b681612227565b915050610782565b50505050565b6000546001600160a01b031633146107ee5760405162461bcd60e51b8152600401610776906121c6565b6107f8828261191c565b5050565b6000546001600160a01b031633146108265760405162461bcd60e51b8152600401610776906121c6565b6108668383838080601f01602080910402602001604051908101604052809392919081815260200183838082843760009201919091525061196b92505050565b505050565b6000546001600160a01b031633146108955760405162461bcd60e51b8152600401610776906121c6565b600991909155600a55565b6000546001600160a01b031633146108ca5760405162461bcd60e51b8152600401610776906121c6565b600c548111156108ed576040516301365a3760e41b815260040160405180910390fd5b6000818152600e60205260409020600381015460ff16156109205760405162560ff960e81b815260040160405180910390fd5b60018101544290811015610947576040516359857f4760e11b815260040160405180910390fd5b60038201805460ff1916600190811790915560009042903390449061096c9043612242565b6040805160208101959095526001600160a01b0390931692840192909252606083015240608082015260a00160408051601f1981840301815291905280516020909101206002808501549054600854929350600092839291906001600160a01b031683805b84811015610c0b5760008b8152600f6020908152604080832084845290915290206002810154909250610a049088612259565b600283015490975015610b41578154600183015460405163ee1fe2ad60e01b81526001600160a01b03928316600482015290821660248201529084169063ee1fe2ad90604401602060405180830381600087803b158015610a6457600080fd5b505af1158015610a78573d6000803e3d6000fd5b505050506040513d601f19601f82011682018060405250810190610a9c9190612271565b955087604051602001610ab191815260200190565b6040516020818303038152906040528051906020012097507f34c695e24b8e551dfeccbf2f515a656706241fd29969bab02ff95629780131e18b8288610b10610afc8760030161198a565b610b06908e6122a0565b6003880190611994565b604080519485526020850193909352918301526001600160a01b0316606082015260800160405180910390a1610bc2565b81546040516335313c2160e11b81526001600160a01b03918216600482015290841690636a62784290602401602060405180830381600087803b158015610b8757600080fd5b505af1158015610b9b573d6000803e3d6000fd5b505050506040513d601f19601f82011682018060405250810190610bbf9190612271565b95505b610bcc868561191c565b8154600087815260106020526040902080546001600160a01b0319166001600160a01b0390921691909117905580610c0381612227565b9150506109d1565b50600d54610c39906001600160a01b0316610c265733610c33565b600d546001600160a01b03165b876119a7565b604080518b8152602081018890527f09982802fa9e928c250dde70652f1c943d95f79ffc7018fa312ef4563f10e765910160405180910390a150505050505050505050565b6000546001600160a01b03163314610ca85760405162461bcd60e51b8152600401610776906121c6565b60005b83811015610d1d57610d0b858583818110610cc857610cc86121fb565b9050602002013584848080601f01602080910402602001604051908101604052809392919081815260200183838082843760009201919091525061196b92505050565b80610d1581612227565b915050610cab565b5050505050565b6000546001600160a01b03163314610d4e5760405162461bcd60e51b8152600401610776906121c6565b826002811015610d71576040516312584ce960e11b815260040160405180910390fd5b6000600c60008154610d8290612227565b91829055506000818152600e60205260409020858155909150610da58486612259565b60018201556002810183905560005b83811015610e7d576000888883818110610dd057610dd06121fb565b9050602002016020810190610de591906120e6565b6001600160a01b03161415610e0d57604051633926d41960e01b815260040160405180910390fd5b878782818110610e1f57610e1f6121fb565b9050602002016020810190610e3491906120e6565b6000848152600f60209081526040808320858452909152902080546001600160a01b0319166001600160a01b039290921691909117905580610e7581612227565b915050610db4565b507f19b19755a445c5c7af778b3a8bdffba6b5bce2d2efafe9b8f811ffb10429e64f828888604051610eb1939291906122b4565b60405180910390a150505050505050565b6000546001600160a01b03163314610eec5760405162461bcd60e51b8152600401610776906121c6565b600c54811115610f0f576040516301365a3760e41b815260040160405180910390fd5b6000818152600e6020526040812060038101805460ff1916600117905560028101549091805b82811015610f92576000858152600f602090815260408083208484529091529020600281015490925015610f805760018201546002830154610f80916001600160a01b0316906119a7565b80610f8a81612227565b915050610f35565b506040518481527f1c755a3aa0e555ecca32e495f9d0617c721427b88231e30a6c959eba05b5d7de906020015b60405180910390a150505050565b565b6000818152600e602090815260409182902082516080810184528154815260018201549281019290925260028101549282018390526003015460ff1615156060828101919091529182919067ffffffffffffffff8111156110325761103261230a565b60405190808252806020026020018201604052801561105b578160200160208202803683370190505b509250806040015167ffffffffffffffff81111561107b5761107b61230a565b6040519080825280602002602001820160405280156110a4578160200160208202803683370190505b50915060005b8160400151811015611154576000858152600f6020908152604080832084845290915290206001015484516001600160a01b03909116908590839081106110f3576110f36121fb565b6001600160a01b039092166020928302919091018201526000868152600f8252604080822084835290925220600201548351849083908110611137576111376121fb565b60209081029190910101528061114c81612227565b9150506110aa565b5050915091565b600260015414156111ae5760405162461bcd60e51b815260206004820152601f60248201527f5265656e7472616e637947756172643a207265656e7472616e742063616c6c006044820152606401610776565b6002600155600c548211156111d6576040516301365a3760e41b815260040160405180910390fd5b6000828152600e60205260409020600381015460ff16156112095760405162560ff960e81b815260040160405180910390fd5b80544290811080159061121f5750816001015481105b61123c576040516317b05e8d60e11b815260040160405180910390fd5b6000848152600f60209081526040808320868452909152902080546001600160a01b031661127d57604051633926d41960e01b815260040160405180910390fd5b600181015433906001600160a01b03168114156112ad57604051630da6793b60e21b815260040160405180910390fd5b600a5434906064906112bf9082612259565b84600201546112ce9190612320565b6112d8919061233f565b8110806112e6575060095481105b1561130457604051630158609760e71b815260040160405180910390fd5b6113116003840183611b27565b506002830154156113395760018301546002840154611339916001600160a01b0316906119a7565b6001830180546001600160a01b0319166001600160a01b03841690811790915560028401829055604080518981526020810189905290810191909152606081018290527f6d2b783673dbbf046f2e5a1f3c92ce62c29a0f5385f2b1f0eaf19019ef28cb559060800160405180910390a1600b5460018601546113bc908290612242565b85111561140f576113cd8186612259565b60018701819055604080518a815260208101929092527f9813d6c65c958d95c9dbeada9fd44327507ce935439efd4f4049a810d18d1ee1910160405180910390a15b505060018055505050505050565b6000546001600160a01b031633146114475760405162461bcd60e51b8152600401610776906121c6565b610fcd6000611b3c565b6000546001600160a01b0316331461147b5760405162461bcd60e51b8152600401610776906121c6565b600d80546001600160a01b0319166001600160a01b0392909216919091179055565b6000546001600160a01b031633146114c75760405162461bcd60e51b8152600401610776906121c6565b600c548311156114ea576040516301365a3760e41b815260040160405180910390fd5b6000838152600e60205260409020600381015460ff161561151d5760405162560ff960e81b815260040160405180910390fd5b82815561152a8284612259565b600182015560408051858152602081018590527f61d061c3e3379acbb9d7267b37b3bb5d0347457e76c54645bde25c72152819db910160405180910390a17f9813d6c65c958d95c9dbeada9fd44327507ce935439efd4f4049a810d18d1ee1846115948486612259565b60408051928352602083019190915201610fbf565b600360205260009081526040902080546115c290612353565b80601f01602080910402602001604051908101604052809291908181526020018280546115ee90612353565b801561163b5780601f106116105761010080835404028352916020019161163b565b820191906000526020600020905b81548152906001019060200180831161161e57829003601f168201915b505050505081565b60606007805461165290612353565b80601f016020809104026020016040519081016040528092919081815260200182805461167e90612353565b80156116cb5780601f106116a0576101008083540402835291602001916116cb565b820191906000526020600020905b8154815290600101906020018083116116ae57829003601f168201915b5050505050905090565b6000818152600460209081526040808320548352600390915281208054606092919061170090612353565b80601f016020809104026020016040519081016040528092919081815260200182805461172c90612353565b80156117795780601f1061174e57610100808354040283529160200191611779565b820191906000526020600020905b81548152906001019060200180831161175c57829003601f168201915b505050505090508061178a84611b8c565b60405160200161179b92919061238e565b60405160208183030381529060405291505092915050565b6008546000906001600160a01b0316156117cc57600080fd5b50600880546001600160a01b03191633179055600190565b6000546001600160a01b0316331461180e5760405162461bcd60e51b8152600401610776906121c6565b6107be84848080601f01602080910402602001604051908101604052809392919081815260200183838082843760009201919091525050604080516020601f88018190048102820181019092528681529250869150859081908401838280828437600092019190915250611c9292505050565b6000546001600160a01b031633146118ab5760405162461bcd60e51b8152600401610776906121c6565b6001600160a01b0381166119105760405162461bcd60e51b815260206004820152602660248201527f4f776e61626c653a206e6577206f776e657220697320746865207a65726f206160448201526564647265737360d01b6064820152608401610776565b61191981611b3c565b50565b60008281526004602090815260409182902083905581518481529081018390527fc4d409acc3eac9877f149f8a11aa2091f740bce5db380fe41ccc8863447a99f2910160405180910390a15050565b6000828152600360209081526040909120825161086692840190611d3b565b6000610746825490565b60006119a08383611cc2565b9392505050565b806119b0575050565b6000826001600160a01b03168261753090604051600060405180830381858888f193505050503d8060008114611a02576040519150601f19603f3d011682016040523d82523d6000602084013e611a07565b606091505b5050905080610866577f00000000000000000000000000000000000000000000000000000000000000006001600160a01b031663d0e30db0836040518263ffffffff1660e01b81526004016000604051808303818588803b158015611a6b57600080fd5b505af1158015611a7f573d6000803e3d6000fd5b505060405163a9059cbb60e01b81526001600160a01b038781166004830152602482018790527f000000000000000000000000000000000000000000000000000000000000000016935063a9059cbb92506044019050602060405180830381600087803b158015611aef57600080fd5b505af1158015611b03573d6000803e3d6000fd5b505050506040513d601f19601f820116820180604052508101906107be91906123cd565b60006119a0836001600160a01b038416611cec565b600080546001600160a01b038381166001600160a01b0319831681178455604051919092169283917f8be0079c531659141344cd1fd0a4f28419497f9722a3daafe3b4186f6b6457e09190a35050565b606081611bb05750506040805180820190915260018152600360fc1b602082015290565b8160005b8115611bda5780611bc481612227565b9150611bd39050600a8361233f565b9150611bb4565b60008167ffffffffffffffff811115611bf557611bf561230a565b6040519080825280601f01601f191660200182016040528015611c1f576020820181803683370190505b5090505b8415611c8a57611c34600183612242565b9150611c41600a866122a0565b611c4c906030612259565b60f81b818381518110611c6157611c616121fb565b60200101906001600160f81b031916908160001a905350611c83600a8661233f565b9450611c23565b949350505050565b815115611ca557611ca56002548361196b565b6107f8600260008154611cb790612227565b91829055508261196b565b6000826000018281548110611cd957611cd96121fb565b9060005260206000200154905092915050565b6000818152600183016020526040812054611d3357508154600181810184556000848152602080822090930184905584548482528286019093526040902091909155610746565b506000610746565b828054611d4790612353565b90600052602060002090601f016020900481019282611d695760008555611daf565b82601f10611d8257805160ff1916838001178555611daf565b82800160010185558215611daf579182015b82811115611daf578251825591602001919060010190611d94565b50611dbb929150611dbf565b5090565b5b80821115611dbb5760008155600101611dc0565b600060208284031215611de657600080fd5b81356001600160e01b0319811681146119a057600080fd5b60008083601f840112611e1057600080fd5b50813567ffffffffffffffff811115611e2857600080fd5b6020830191508360208260051b8501011115611e4357600080fd5b9250929050565b600080600060408486031215611e5f57600080fd5b833567ffffffffffffffff811115611e7657600080fd5b611e8286828701611dfe565b909790965060209590950135949350505050565b60008060408385031215611ea957600080fd5b50508035926020909101359150565b80356001600160a01b0381168114611ecf57600080fd5b919050565b60008060408385031215611ee757600080fd5b611ef083611eb8565b946020939093013593505050565b600060208284031215611f1057600080fd5b5035919050565b60008083601f840112611f2957600080fd5b50813567ffffffffffffffff811115611f4157600080fd5b602083019150836020828501011115611e4357600080fd5b600080600060408486031215611f6e57600080fd5b83359250602084013567ffffffffffffffff811115611f8c57600080fd5b611f9886828701611f17565b9497909650939450505050565b60008060008060408587031215611fbb57600080fd5b843567ffffffffffffffff80821115611fd357600080fd5b611fdf88838901611dfe565b90965094506020870135915080821115611ff857600080fd5b5061200587828801611f17565b95989497509550505050565b6000806000806060858703121561202757600080fd5b843567ffffffffffffffff81111561203e57600080fd5b61204a87828801611dfe565b90989097506020870135966040013595509350505050565b604080825283519082018190526000906020906060840190828701845b828110156120a45781516001600160a01b03168452928401929084019060010161207f565b5050508381038285015284518082528583019183019060005b818110156120d9578351835292840192918401916001016120bd565b5090979650505050505050565b6000602082840312156120f857600080fd5b6119a082611eb8565b60008060006060848603121561211657600080fd5b505081359360208301359350604090920135919050565b60005b83811015612148578181015183820152602001612130565b838111156107be5750506000910152565b602081526000825180602084015261217881604085016020870161212d565b601f01601f19169190910160400192915050565b600080600080604085870312156121a257600080fd5b843567ffffffffffffffff808211156121ba57600080fd5b611fdf88838901611f17565b6020808252818101527f4f776e61626c653a2063616c6c6572206973206e6f7420746865206f776e6572604082015260600190565b634e487b7160e01b600052603260045260246000fd5b634e487b7160e01b600052601160045260246000fd5b600060001982141561223b5761223b612211565b5060010190565b60008282101561225457612254612211565b500390565b6000821982111561226c5761226c612211565b500190565b60006020828403121561228357600080fd5b5051919050565b634e487b7160e01b600052601260045260246000fd5b6000826122af576122af61228a565b500690565b83815260406020808301829052908201839052600090849060608401835b868110156122fe576001600160a01b036122eb85611eb8565b16825292820192908201906001016122d2565b50979650505050505050565b634e487b7160e01b600052604160045260246000fd5b600081600019048311821515161561233a5761233a612211565b500290565b60008261234e5761234e61228a565b500490565b600181811c9082168061236757607f821691505b6020821081141561238857634e487b7160e01b600052602260045260246000fd5b50919050565b600083516123a081846020880161212d565b8351908301906123b481836020880161212d565b64173539b7b760d91b9101908152600501949350505050565b6000602082840312156123df57600080fd5b815180151581146119a057600080fdfea2646970667358221220cd6cc50ff8ba38ce1a59f7ba42c0fa8a4b6b2f08884ca342564c217a01562c2c64736f6c63430008090033",
  "devdoc": {
    "kind": "dev",
    "methods": {
      "bid(uint256,uint256)": {
        "params": {
          "battleId": "the battle id to bid on",
          "contender": "the contender to bid on"
        }
      },
      "cancelBattle(uint256)": {
        "params": {
          "battleId": "the battle id"
        }
      },
      "contractURI()": {
        "returns": {
          "_0": "the URI where to find information about the module"
        }
      },
      "createBattle(address[],uint256,uint256)": {
        "params": {
          "contenders": "the contenders for this battle",
          "duration": "the duration of the battle",
          "startsAt": "when the battle starts"
        }
      },
      "getBattleBids(uint256)": {
        "params": {
          "battleId": "the battle id"
        },
        "returns": {
          "bidders": "an array of bidders",
          "bids": "an array of bids"
        }
      },
      "incrementGroup(string,string)": {
        "params": {
          "newGroupBaseURI": "next group baseURI",
          "previousGroupBaseURI": "current group baseURI"
        }
      },
      "onAttach()": {
        "returns": {
          "_0": "if the attach worked"
        }
      },
      "onEnable()": {
        "returns": {
          "_0": "if the enabling worked"
        }
      },
      "owner()": {
        "details": "Returns the address of the current owner."
      },
      "renounceOwnership()": {
        "details": "Leaves the contract without owner. It will not be possible to call `onlyOwner` functions anymore. Can only be called by the current owner. NOTE: Renouncing ownership will leave the contract without an owner, thereby removing any functionality that is only available to the owner."
      },
      "royaltyInfo(address,uint256)": {
        "details": "Contrary to EIP2981, modules are expected to return basisPoint for second parameters      This in order to allow right royalties on marketplaces not supporting 2981 (like Rarible)",
        "params": {
          "registry": "registry to check id of",
          "tokenId": "token to check"
        },
        "returns": {
          "recipient": "and basisPoint for this tokenId"
        }
      },
      "setBattleStarts(uint256,uint256,uint256)": {
        "params": {
          "battleId": "the battle id",
          "duration": "the battle duration",
          "startsAt": "the start time"
        }
      },
      "setGroupURI(uint256,string)": {
        "params": {
          "baseURI": "group baseURI",
          "groupId": "the group id"
        }
      },
      "setGroupsURI(uint256[],string)": {
        "params": {
          "baseURI": "group baseURI",
          "groupIds": "the groups ids"
        }
      },
      "setMinimals(uint256,uint256)": {
        "params": {
          "newMinimalBid": "the new minimal bid, in wei",
          "newMinimalBidIncrease": "the new minimalBidIncrease, in percent, no decimals"
        }
      },
      "setTokenGroup(uint256,uint256)": {
        "params": {
          "groupId": "the group id",
          "tokenId": "the token id"
        }
      },
      "setTokensGroup(uint256[],uint256)": {
        "params": {
          "groupId": "the group id",
          "tokenIds": "the token ids"
        }
      },
      "setWithdrawTarget(address)": {
        "params": {
          "newWithdrawTarget": "the new address to withdraw to"
        }
      },
      "settleBattle(uint256)": {
        "params": {
          "battleId": "the battle id"
        }
      },
      "supportsInterface(bytes4)": {
        "details": "Returns true if this contract implements the interface defined by `interfaceId`. See the corresponding https://eips.ethereum.org/EIPS/eip-165#how-interfaces-are-identified[EIP section] to learn more about how these ids are created. This function call must use less than 30 000 gas."
      },
      "transferOwnership(address)": {
        "details": "Transfers ownership of the contract to a new account (`newOwner`). Can only be called by the current owner."
      }
    },
    "version": 1
  },
  "userdoc": {
    "kind": "user",
    "methods": {
      "battles(uint256)": {
        "notice": "all battles"
      },
      "bid(uint256,uint256)": {
        "notice": "Allows to bid on `contender` for a Battle"
      },
      "cancelBattle(uint256)": {
        "notice": "allows owner to cancel a battle"
      },
      "contractURI()": {
        "notice": "returns an URI with information about the module"
      },
      "createBattle(address[],uint256,uint256)": {
        "notice": "Allows owner to create a battle"
      },
      "currentGroupId()": {
        "notice": "current group of tokenIds"
      },
      "getBattleBids(uint256)": {
        "notice": "returns current bids for a battle"
      },
      "groupBaseURI(uint256)": {
        "notice": "the NFTs will first have centralized tokenURIs until the artist provide all files"
      },
      "incrementGroup(string,string)": {
        "notice": "allows owner to pass to the next"
      },
      "lastBattleId()": {
        "notice": "contains last known battle id"
      },
      "minimalBid()": {
        "notice": "minimal bid"
      },
      "minimalBidIncrease()": {
        "notice": "minimal bid increase when bidding (5% initially)"
      },
      "nftContract()": {
        "notice": "the contract holding the NFTs"
      },
      "onAttach()": {
        "notice": "Called by a Token Registry whenever the module is Attached"
      },
      "onDisable()": {
        "notice": "Called by a Token Registry whenever the module is Disabled"
      },
      "onEnable()": {
        "notice": "this contract doesn't really care if it's enabled or not         since trying to mint on a contract where it's not enabled will fail"
      },
      "royaltyInfo(address,uint256)": {
        "notice": "Return royalties (recipient, basisPoint) for tokenId"
      },
      "setBattleStarts(uint256,uint256,uint256)": {
        "notice": "allows owner to change the time of a battle"
      },
      "setGroupURI(uint256,string)": {
        "notice": "allows owner to set a group URI"
      },
      "setGroupsURI(uint256[],string)": {
        "notice": "allows owner to set one URI for several groups"
      },
      "setMinimals(uint256,uint256)": {
        "notice": "allows owner to change minimalBidIncreace and minimalBid"
      },
      "setTokenGroup(uint256,uint256)": {
        "notice": "allows owner to associate a token to a specific group"
      },
      "setTokensGroup(uint256[],uint256)": {
        "notice": "allows owner to associate tokenIds to a specific group"
      },
      "setWithdrawTarget(address)": {
        "notice": "allows owner to set the withdraw address"
      },
      "settleBattle(uint256)": {
        "notice": "allows owner to settle a battle"
      },
      "timeBuffer()": {
        "notice": "time to add to the battle auction end when late bids"
      },
      "tokenCreator(uint256)": {
        "notice": "mapping tokenId => creator"
      },
      "tokenGroup(uint256)": {
        "notice": "mapping tokenId to group"
      },
      "wethContract()": {
        "notice": "weth contract address to refund users if transfer fails"
      },
      "withdrawTarget()": {
        "notice": "the target address getting the eth when settling a Battle"
      }
    },
    "version": 1
  },
  "storageLayout": {
    "storage": [
      {
        "astId": 7262,
        "contract": "contracts/NFTBattles.sol:NFTBattles",
        "label": "_owner",
        "offset": 0,
        "slot": "0",
        "type": "t_address"
      },
      {
        "astId": 7370,
        "contract": "contracts/NFTBattles.sol:NFTBattles",
        "label": "_status",
        "offset": 0,
        "slot": "1",
        "type": "t_uint256"
      },
      {
        "astId": 8270,
        "contract": "contracts/NFTBattles.sol:NFTBattles",
        "label": "currentGroupId",
        "offset": 0,
        "slot": "2",
        "type": "t_uint256"
      },
      {
        "astId": 8275,
        "contract": "contracts/NFTBattles.sol:NFTBattles",
        "label": "groupBaseURI",
        "offset": 0,
        "slot": "3",
        "type": "t_mapping(t_uint256,t_string_storage)"
      },
      {
        "astId": 8280,
        "contract": "contracts/NFTBattles.sol:NFTBattles",
        "label": "tokenGroup",
        "offset": 0,
        "slot": "4",
        "type": "t_mapping(t_uint256,t_uint256)"
      },
      {
        "astId": 324,
        "contract": "contracts/NFTBattles.sol:NFTBattles",
        "label": "_attached",
        "offset": 0,
        "slot": "5",
        "type": "t_struct(AddressSet)7972_storage"
      },
      {
        "astId": 330,
        "contract": "contracts/NFTBattles.sol:NFTBattles",
        "label": "_contractURI",
        "offset": 0,
        "slot": "7",
        "type": "t_string_storage"
      },
      {
        "astId": 8494,
        "contract": "contracts/NFTBattles.sol:NFTBattles",
        "label": "nftContract",
        "offset": 0,
        "slot": "8",
        "type": "t_address"
      },
      {
        "astId": 8498,
        "contract": "contracts/NFTBattles.sol:NFTBattles",
        "label": "minimalBid",
        "offset": 0,
        "slot": "9",
        "type": "t_uint256"
      },
      {
        "astId": 8502,
        "contract": "contracts/NFTBattles.sol:NFTBattles",
        "label": "minimalBidIncrease",
        "offset": 0,
        "slot": "10",
        "type": "t_uint256"
      },
      {
        "astId": 8506,
        "contract": "contracts/NFTBattles.sol:NFTBattles",
        "label": "timeBuffer",
        "offset": 0,
        "slot": "11",
        "type": "t_uint256"
      },
      {
        "astId": 8509,
        "contract": "contracts/NFTBattles.sol:NFTBattles",
        "label": "lastBattleId",
        "offset": 0,
        "slot": "12",
        "type": "t_uint256"
      },
      {
        "astId": 8512,
        "contract": "contracts/NFTBattles.sol:NFTBattles",
        "label": "withdrawTarget",
        "offset": 0,
        "slot": "13",
        "type": "t_address"
      },
      {
        "astId": 8518,
        "contract": "contracts/NFTBattles.sol:NFTBattles",
        "label": "battles",
        "offset": 0,
        "slot": "14",
        "type": "t_mapping(t_uint256,t_struct(Battle)8481_storage)"
      },
      {
        "astId": 8526,
        "contract": "contracts/NFTBattles.sol:NFTBattles",
        "label": "_battleContenders",
        "offset": 0,
        "slot": "15",
        "type": "t_mapping(t_uint256,t_mapping(t_uint256,t_struct(BattleContender)8491_storage))"
      },
      {
        "astId": 8534,
        "contract": "contracts/NFTBattles.sol:NFTBattles",
        "label": "tokenCreator",
        "offset": 0,
        "slot": "16",
        "type": "t_mapping(t_uint256,t_address)"
      }
    ],
    "types": {
      "t_address": {
        "encoding": "inplace",
        "label": "address",
        "numberOfBytes": "20"
      },
      "t_array(t_bytes32)dyn_storage": {
        "base": "t_bytes32",
        "encoding": "dynamic_array",
        "label": "bytes32[]",
        "numberOfBytes": "32"
      },
      "t_bool": {
        "encoding": "inplace",
        "label": "bool",
        "numberOfBytes": "1"
      },
      "t_bytes32": {
        "encoding": "inplace",
        "label": "bytes32",
        "numberOfBytes": "32"
      },
      "t_mapping(t_bytes32,t_uint256)": {
        "encoding": "mapping",
        "key": "t_bytes32",
        "label": "mapping(bytes32 => uint256)",
        "numberOfBytes": "32",
        "value": "t_uint256"
      },
      "t_mapping(t_uint256,t_address)": {
        "encoding": "mapping",
        "key": "t_uint256",
        "label": "mapping(uint256 => address)",
        "numberOfBytes": "32",
        "value": "t_address"
      },
      "t_mapping(t_uint256,t_mapping(t_uint256,t_struct(BattleContender)8491_storage))": {
        "encoding": "mapping",
        "key": "t_uint256",
        "label": "mapping(uint256 => mapping(uint256 => struct NFTBattles.BattleContender))",
        "numberOfBytes": "32",
        "value": "t_mapping(t_uint256,t_struct(BattleContender)8491_storage)"
      },
      "t_mapping(t_uint256,t_string_storage)": {
        "encoding": "mapping",
        "key": "t_uint256",
        "label": "mapping(uint256 => string)",
        "numberOfBytes": "32",
        "value": "t_string_storage"
      },
      "t_mapping(t_uint256,t_struct(Battle)8481_storage)": {
        "encoding": "mapping",
        "key": "t_uint256",
        "label": "mapping(uint256 => struct NFTBattles.Battle)",
        "numberOfBytes": "32",
        "value": "t_struct(Battle)8481_storage"
      },
      "t_mapping(t_uint256,t_struct(BattleContender)8491_storage)": {
        "encoding": "mapping",
        "key": "t_uint256",
        "label": "mapping(uint256 => struct NFTBattles.BattleContender)",
        "numberOfBytes": "32",
        "value": "t_struct(BattleContender)8491_storage"
      },
      "t_mapping(t_uint256,t_uint256)": {
        "encoding": "mapping",
        "key": "t_uint256",
        "label": "mapping(uint256 => uint256)",
        "numberOfBytes": "32",
        "value": "t_uint256"
      },
      "t_string_storage": {
        "encoding": "bytes",
        "label": "string",
        "numberOfBytes": "32"
      },
      "t_struct(AddressSet)7972_storage": {
        "encoding": "inplace",
        "label": "struct EnumerableSet.AddressSet",
        "members": [
          {
            "astId": 7971,
            "contract": "contracts/NFTBattles.sol:NFTBattles",
            "label": "_inner",
            "offset": 0,
            "slot": "0",
            "type": "t_struct(Set)7671_storage"
          }
        ],
        "numberOfBytes": "64"
      },
      "t_struct(Battle)8481_storage": {
        "encoding": "inplace",
        "label": "struct NFTBattles.Battle",
        "members": [
          {
            "astId": 8474,
            "contract": "contracts/NFTBattles.sol:NFTBattles",
            "label": "startsAt",
            "offset": 0,
            "slot": "0",
            "type": "t_uint256"
          },
          {
            "astId": 8476,
            "contract": "contracts/NFTBattles.sol:NFTBattles",
            "label": "endsAt",
            "offset": 0,
            "slot": "1",
            "type": "t_uint256"
          },
          {
            "astId": 8478,
            "contract": "contracts/NFTBattles.sol:NFTBattles",
            "label": "contenders",
            "offset": 0,
            "slot": "2",
            "type": "t_uint256"
          },
          {
            "astId": 8480,
            "contract": "contracts/NFTBattles.sol:NFTBattles",
            "label": "settled",
            "offset": 0,
            "slot": "3",
            "type": "t_bool"
          }
        ],
        "numberOfBytes": "128"
      },
      "t_struct(BattleContender)8491_storage": {
        "encoding": "inplace",
        "label": "struct NFTBattles.BattleContender",
        "members": [
          {
            "astId": 8483,
            "contract": "contracts/NFTBattles.sol:NFTBattles",
            "label": "artist",
            "offset": 0,
            "slot": "0",
            "type": "t_address"
          },
          {
            "astId": 8485,
            "contract": "contracts/NFTBattles.sol:NFTBattles",
            "label": "highestBidder",
            "offset": 0,
            "slot": "1",
            "type": "t_address"
          },
          {
            "astId": 8487,
            "contract": "contracts/NFTBattles.sol:NFTBattles",
            "label": "highestBid",
            "offset": 0,
            "slot": "2",
            "type": "t_uint256"
          },
          {
            "astId": 8490,
            "contract": "contracts/NFTBattles.sol:NFTBattles",
            "label": "bidders",
            "offset": 0,
            "slot": "3",
            "type": "t_struct(AddressSet)7972_storage"
          }
        ],
        "numberOfBytes": "160"
      },
      "t_struct(Set)7671_storage": {
        "encoding": "inplace",
        "label": "struct EnumerableSet.Set",
        "members": [
          {
            "astId": 7666,
            "contract": "contracts/NFTBattles.sol:NFTBattles",
            "label": "_values",
            "offset": 0,
            "slot": "0",
            "type": "t_array(t_bytes32)dyn_storage"
          },
          {
            "astId": 7670,
            "contract": "contracts/NFTBattles.sol:NFTBattles",
            "label": "_indexes",
            "offset": 0,
            "slot": "1",
            "type": "t_mapping(t_bytes32,t_uint256)"
          }
        ],
        "numberOfBytes": "64"
      },
      "t_uint256": {
        "encoding": "inplace",
        "label": "uint256",
        "numberOfBytes": "32"
      }
    }
  }
}